:02000002D0002C
:1040000000400D00F0610D00000006000C000501ED
:08401000040179050000000025
:04401800805D0D00BA
:10401C0009480A49884208B505D0094A824202D0AB
:10402C00121A01F058FE0748074A0021121A01F033
:10403C005DFE014808BD00BF64E4032060610D0013
:10404C00CCE40320CCE40320F0E7032070B501F0AE
:10405C007DFC074C074BE41AA40800251E46A5421C
:10406C0004D056F8253098470135F8E770BD00BFED
:10407C0058610D001C610D0000F018B808B500F077
:10408C0045F8BDE8084001F02FBC00F041BA00F043
:10409C003FBA00F045BA00F043BA0078B0FA80F0AD
:1040AC0040097047012303707047000010B501F000
:1040BC0099FB4FF4165101F089FB01F093FB0E496B
:1040CC0000F0CDFE002422460C490D4800F030FAD9
:1040DC0001F088FB0A4900F0C2FE094A09490A4866
:1040EC0000F044FD322000F033FA013441F27173D8
:1040FC009C42E8D110BD00BF945D0D00315F0D00F6
:10410C00D0E40320A55D0D00F4E40320704700F01B
:10411C0061B8000008B5024B1B685B68019308BDD1
:10412C004802030008B5024B1B689B68019308BD4D
:10413C004802030008B5024B1B681B69019308BDBC
:10414C004802030008B5024B1B685B69019308BD6C
:10415C004802030008B5024B1B681B6B019308BD9A
:10416C004802030008B5024B1B685B6C019308BD49
:10417C004802030008B5024B1B68DB6C019308BDB9
:10418C004802030008B5024B1B685B6D019308BD28
:10419C004802030008B5024B1B68DB6E019308BD97
:1041AC004802030008B5024B1B685B68019308BD0D
:1041BC001802030008B5024B1B689B68019308BDED
:1041CC001802030008B5024B1B685B69019308BD1C
:1041DC001802030008B5024B1B681B68019308BD4D
:1041EC002C02030008B5024B1B681B69019308BD28
:1041FC006C02030008B5024B1B685B69019308BD98
:10420C006C02030008B5024B1B689B69019308BD47
:10421C006C02030008B5024B1B685B6D019308BD73
:10422C006C02030008B5024B1B689B6D019308BD23
:10423C006C02030008B5024B1B685B69019308BD57
:10424C006402030008B5024B1B689B69019308BD0F
:10425C006402030008B5024B1B681B6A019308BD7E
:10426C006402030008B5024B1B685B6A019308BD2E
:10427C006402030008B5024B1B689B6A019308BDDE
:10428C006402030008B5024B1B689B68019308BDD0
:10429C006802030008B5024B1B68DB68019308BD7C
:1042AC006802030008B5024B1B685B68019308BDEC
:1042BC003802030008B5024B1B689B69019308BDCB
:1042CC003802030008B5024B1B68DB69019308BD7B
:1042DC003802030008B5024B1B68DB6A019308BD6A
:1042EC003802030008B5024B1B685B6B019308BDD9
:1042FC003802030008B5024B1B689B6B019308BD89
:10430C003802030008B5024B1B68DB69019308BD3A
:10431C003002030008B5024B1B681B68019308BDF3
:10432C003C02030008B5024B1B68DB68019308BD17
:10433C003C02030008B5024B1B681B69019308BDC6
:10434C003C02030008B5024B1B685B69019308BD76
:10435C003C02030008B5024B1B689B69019308BD26
:10436C003C02030008B5024B1B68DB69019308BDD6
:10437C003C02030008B5024B1B689B6A019308BD05
:10438C003C02030008B5024B1B681B68019308BD77
:10439C004C02030008B5024B1B685B68019308BD17
:1043AC004C02030008B5024B1B681B69019308BD46
:1043BC004C02030008B5024B1B685B69019308BDF6
:1043CC004C02030008B5024B1B689B69019308BDA6
:1043DC004C02030008B5024B1B68DB69019308BD56
:1043EC004C02030008B5024B1B681B6A019308BD05
:1043FC004C02030008B5024B1B681B6D019308BDF2
:10440C006002030008B5024B1B685B68019308BD92
:10441C002002030008B5024B1B685B69019308BDC1
:10442C002002030008B5034B1B68D3F888300193B6
:10443C0008BD00002002030008B5034B1B68D3F82D
:10444C009430019308BD00002002030008B5034B13
:10445C001B68D3F8A430019308BD000020020300B0
:10446C0008B5024B1B68DB6B019308BD44020300CB
:10447C0008B5024B1B685B68019308BD4002030042
:10448C0008B5024B1B689B68019308BD40020300F2
:10449C0008B5024B1B68DB68019308BD40020300A2
:1044AC0008B5024B1B681B69019308BD4002030051
:1044BC0008B5024B1B685B69019308BD4002030001
:1044CC0008B5024B1B689B69019308BD40020300B1
:1044DC0008B5024B1B68DB69019308BD4002030061
:1044EC0008B5024B1B681B6A019308BD4002030010
:1044FC0008B5024B1B681B6B019308BD40020300FF
:10450C0008B5024B1B685B6B019308BD40020300AE
:10451C0008B5024B1B681B68019308BD1C02030005
:10452C0008B5024B1B685B68019308BD1C020300B5
:10453C0008B5024B1B68DB68019308BD1C02030025
:10454C0008B5024B1B68DB6A019308BD1C02030013
:10455C000021FFF75FBF0000024800230360FFF754
:10456C0001BE00BFDCE4032010B58368044613B120
:10457C00032201469847204610BD00221146406890
:10458C00FFF7AEBF002211464068FFF7B9BF00220B
:10459C004068FFF7ADBF002281F001014068FFF7D2
:1045AC0097BF00231A4619464068FFF789BF0023BE
:1045BC001A4619464068FFF77BBF00221146406837
:1045CC00FFF76EBF002211464068FFF759BF00226B
:1045DC0002214068FFF75CBF00231A464068FFF7D2
:1045EC0047BF0000024B03225A60024A1A60704710
:1045FC00E0E40320BC5D0D00704710B518210446A3
:10460C0001F0E5F9204610BDF0B5037D062B8DB009
:10461C000E4600F104074FF0000402D000F108052B
:10462C0018E00CAD394605F8304D2F232A460A20E8
:10463C00FFF700FE284601F089FB33680246DB6871
:10464C002946304698470FE024B12E21304600F021
:10465C00F7FB044415F8011D0A22304600F036FC25
:10466C00BD420444F0D120460DB0F0BD10B5054B51
:10467C000446112240F8043B002101F037FB204690
:10468C0010BD00BFF05D0D000346074A10B543F89E
:10469C00042B01F1100251F8044B43F8044B9142E6
:1046AC00F9D10A781A7010BDF05D0D00037D042B52
:1046BC0001D1406808E0062B0AD1436853B98368DE
:1046CC0043B9C36833B90069003018BF0120704783
:1046DC00002070470120704710B59DF8084044EA4F
:1046EC00032343EA024242EA016104234160037559
:1046FC0010BD37B50D788B784A78C978009129466A
:10470C00FFF7EAFF03B030BD0068FFF733BD0000D0
:10471C00014B024A1A607047E8E403206F5E0D00FB
:10472C0010B501230374836804460BB1C06806E01E
:10473C00006828B183680BB901F065F9C368984724
:10474C00012363740020BDE81040FFF723BD002255
:10475C0011464068FFF7C4BE002211464068FFF7BF
:10476C00CFBE00224068FFF7C3BE002281F00101DA
:10477C004068FFF7ADBE00231A4601214068FFF7E1
:10478C009FBE00231A4619464068FFF791BE0022CF
:10479C0011464068FFF784BE002211464068FFF7BF
:1047AC006FBE002202214068FFF772BE00231A463A
:1047BC004068FFF75DBE38B5054688B104684CB15A
:1047CC00A3681BB10322214620469847102120469E
:1047DC0001F0FDF828461421BDE8384001F0F7B887
:1047EC0038BD10B103685B681847704710B5036893
:1047FC000446BBB15868FFF795FC78B923685A7C1E
:10480C0012B95868FFF796FC23685868FFF79AFCB2
:10481C0020680023236028B1FFF7CDFF206808B182
:10482C00FFF7C9FF204610BD38B50C4B036004469A
:10483C00D0F8CC0108B1FFF72EFCD4F8C45135B137
:10484C002846FFF7D3FF0421284601F0C0F8A068E2
:10485C0008B1FFF7C6FF204638BD00BFE45E0D006F
:10486C002DE9F341044608460D46904601F06EFAD8
:10487C0004F5DC760746236CABB14021204601F0F1
:10488C006DFA874202460BD32946204601F014FAF2
:10489C0030B9009043462A4621465820FFF7D6FDF2
:1048AC005834B442E7D102B0BDE8F08130B58DB0D8
:1048BC0004461122002101A801F018FA062301AACE
:1048CC0009498DF814300A20FFF7BCFC07AD01A98B
:1048DC0006A8FFF7D9FE0FCD04340FC42B68237044
:1048EC0000200DB030BD00BF105F0D002DE9F04170
:1048FC00054600F5E0768AB03046FFF705FF2C68D8
:10490C00D5F8C001FFF73EFC002C63D0D5F8C431BC
:10491C0063B12368D5F8C4111F6B20464FF47A732A
:10492C004FF49A62B847041E13DC56E02D494FF43D
:10493C009A6001F066F8D5F8C431C5F8C40113B11A
:10494C001846FFF7A8FBD5F8C431002BE1D1264857
:10495C0044E02023254A029300920023019402AAEA
:10496C00234903930120FFF745FDD5F8C4315F1CA3
:10497C001B786BBB013C2146384601F0EFF938B38C
:10498C00241A002C07EB000822DD3B5C03BB013C26
:10499C000ED008F101082146404601F0DFF9241A37
:1049AC00002C15DD18F8003093B9012C02D00FE063
:1049BC00DFF844803046FFF7A7FE42463946281DF3
:1049CC00FFF74EFFD5F8C001FFF7DCFB002005E038
:1049DC00084803E06420FFF7EDFB20460AB0BDE871
:1049EC00F08100BFB4600D00FCFEFFFF245F0D00E2
:1049FC001D5F0D00E8FEFFFFA05E0D0010B5044624
:104A0C00BFF35F8F94F8C831BFF35F8F1BB920469B
:104A1C00FFF76CFFF4E710BD10B50468016044B1FA
:104A2C002046FFF7E3FE20460421BDE8104000F0CD
:104A3C00CEBF10BD2DE9F04105468AB000F5E070FF
:104A4C00FFF762FE2C68002C7BD14C20FFF71DFB7E
:104A5C000646002873D000F023FD22464FF49A61DD
:104A6C00304600F04DFD0AA93A4801F8194DFFF700
:104A7C00B9FB33689DF80F201B6A49F26901304677
:104A8C00984704A8FFF7F2FD04A8FFF70FFF0028D2
:104A9C004ADB04A9304600F09FFD002844DBBFF33D
:104AAC005F8F85F8C841BFF35F8F2B49042000F05E
:104ABC0099FF05F5DE78074648B32749142000F026
:104ACC0091FF28B10474046044608460C460447431
:104ADC003860B0B1214B83603B682149DD60386898
:104AEC004FF440638DE8090003221E4B0430FFF79E
:104AFC0011FB30B93B681B7C4BB90120FFF75AFB0B
:104B0C00F8E7386800233B6008B1FFF754FE3946DC
:104B1C004046FFF781FFD5F8BC313BB128682E60C9
:104B2C0030B1FFF75EFE0CE0044603E00E4C01E0F2
:104B3C00044607E036B13046FFF753FE02E00A4C5C
:104B4C0000E00024D5F8C001FFF71CFB20460AB09A
:104B5C00BDE8F081345F0D00B4600D00094A0D0012
:104B6C00385F0D002D470D00FCFEFFFF2DE9F047CF
:104B7C0005468CB016460F4609B10B780BB9354C6F
:104B8C0064E0084601F0E2F88046002E5CD0304626
:104B9C0001F0DCF8441C08F102032344B3F59A6FCE
:104BAC004FD805F5E070FFF7AFFD2846FFF742FF41
:104BBC00002840DB6846FFF759FD6846FFF776FE94
:104BCC00002838DBD5F800A0DAF800300DF1040C21
:104BDC00D3F83890204B0693BCE80F000DF11C0E57
:104BEC00AEE80F00DCF800308EF8003049F26902B4
:104BFC0006A95046C84700281DDB002328688DF8FD
:104C0C00183003680122DB6806A9984728680368F6
:104C1C0008F10102DB68394698472CB12868036813
:104C2C002246DB6831469847286803681B6C984716
:104C3C0000EAE07400E00446D5F8C001FFF7A2FAE0
:104C4C0004E06FF0BD0401E03446A4E720460CB04C
:104C5C00BDE8F087F2FEFFFFF05D0D0038B50E4C9D
:104C6C000E4B23600025022304F5E4706360A560FD
:104C7C00C4F8C451C4F8C851FFF774FA084BC4F80F
:104C8C00CC5184F8D05123602046064A0649BDE831
:104C9C00384000F097BE00BFECE40320485F0D00E5
:104CAC00E45E0D00CCE4032035480D0000231A46C9
:104CBC004068FFF7DDBB002202214068FFF7E8BB2C
:104CCC00002211464068FFF7DBBB0022114640680A
:104CDC00FFF7E6BB00231A4619464068FFF7E8BB0E
:104CEC0000231A4619464068FFF7EABB002281F000
:104CFC0001014068FFF7ECBB00224068FFF7F8BBEE
:104D0C00002211464068FFF7FBBB002211464068A9
:104D1C00FFF7E6BB2DE9F043002495B016460D468F
:104D2C000746FFF7A3FC214620220CA8009400F0B4
:104D3C00DDFF40230C9321466B460CAA3046FFF74F
:104D4C00A9FA0446002844D1024601216868FFF7FD
:104D5C00A7FB0221804622466868FFF7A1FB009E54
:104D6C0081462146002E34D0002932D17368022BA3
:104D7C0002D00A2B09D02AE0B8F1000F27D07169B4
:104D8C0038460431FFF7B5FC20E0B9F1000F1ED016
:104D9C007469112201A800F0A9FF06238DF81430C4
:104DAC0001AD04F108031834186859682A4603C287
:104DBC000833A3421546F7D101A906A807ADFFF7A2
:104DCC0063FC0FCD3C1D0FC42B6823700121F669C9
:104DDC00C8E70098FFF756FA384615B0BDE8F083DF
:104DEC00024B034A1A6000225A607047C0E6032047
:104DFC00485F0D00F8B506460D468F180024BD42DD
:104E0C000CD0336815F8011B9B6830469847002876
:104E1C0001DB0444F3E7002C08BF04462046F8BD30
:104E2C0070B505460C46084649B100F08FFF2B685B
:104E3C00024621462846DB68BDE87040184770BD25
:104E4C0003689B68184738B50D210546FFF7F8FF36
:104E5C000A2104462846FFF7F3FF204438BD38B535
:104E6C000546FFF7DDFF04462846FFF7ECFF20441C
:104E7C0038BD30B58BB00B4600218DF82410012ABB
:104E8C0098BF0A220DF12304B3FBF2F505FB123394
:104E9C0003F0FF03092B94BF30333733DBB22146C9
:104EAC0004F801392B46002DEED1FFF7B9FF0BB0FA
:104EBC0030BD10B42AB903685DF8044B9B68C9B2C5
:104ECC001847D2B25DF8044BFFF7D3BFFFF7F1BF21
:104EDC0010B50446FFF748FB204610BD0348044AB2
:104EEC0004490023836000F06DBD00BFC8E60320B9
:104EFC00CCE40320DD4E0D00704710B510210446A4
:104F0C0000F065FD204610BD70B5084B03600446EB
:104F1C0000250E4640F80C5FFFF71CF93046267151
:104F2C00FFF7F0F9A560204670BD00BF7C5F0D0057
:104F3C00044B00204FF6FF72187058809A80FFF7D0
:104F4C0061BA00BFD8E60320024B1A68024B1A6004
:104F5C00704700BF64E40320E0E6032010B404684B
:104F6C00246BA4465DF8044B604703689B6C1847A0
:104F7C00808E7047028FC08E101A704713B502AB2B
:104F8C00026803F8011DD46819460122A04702B03B
:104F9C0010BD10B503681B690446984728B1E38E11
:104FAC00E26B591CE186D05C10BD4FF0FF3010BD98
:104FBC0010B503681B690446984718B1E38EE26B81
:104FCC00D05C10BD4FF0FF3010BD704710B40346DD
:104FDC000846DC6BD98E1A8F0368521ADB682144A1
:104FEC005DF8044B1847A0F11000FFF7EFBFF0B5C8
:104FFC0003688DB01C265B6A04460F46154698471D
:10500C0001233246002105A8029300F06FFE8DF8B3
:10501C00146038460A268DF81560FFF72BF911221B
:10502C00ADF8160002213046FFF764F900286061E4
:10503C0024DB0422009202AB40F6FF71FFF73AF931
:10504C00E0B995B10390ADF8100003A9E8B2FFF7F1
:10505C00D1F898B90623009341F20B0203AB40F64A
:10506C00FF716069FFF726F940B91C2205A9606938
:10507C00FFF718F910B96564012004E02368204695
:10508C005B6A984700200DB0F0BD10B5044640692E
:10509C00002801DBFFF716F94FF0FF3363610023A3
:1050AC00E386238710BD38B5C36B0546C08E13B19C
:1050BC002C6C241A00E01C46944228BF144622464D
:1050CC00184400F008FEEB8E2344EB86204638BDD6
:1050DC0070B503681B6904460E461546984788B19F
:1050EC00236820461B699847E38EE16B8542A8BF75
:1050FC00054619442A46304600F0EDFDE38E2B445C
:10510C00E38601E04FF0FF35284670BD70B50446CC
:10511C00054B44F8043B01F1200506460FCD0FC4A6
:10512C002B682370304670BDF05D0D00F0B59446D1
:10513C00026889B0976A0A4A02921D1D8E4606467D
:10514C000FCD03AC0FC42B682370BDF8383000931F
:10515C00624602AB71463046B84709B0F0BD00BF9D
:10516C00F05D0D00F0B50368B0F836E09F6A0D4BAA
:10517C0089B000F12006044602930FCE03AD0FC593
:10518C0033682B70A38E0093724602ABE16B204602
:10519C00B84723680546DB6920469847284609B07E
:1051AC00F0BD00BFF05D0D00F0B54378022B8DB063
:1051BC0005460C46174601D1011D33E00A2B35D1AB
:1051CC001122002101A800F091FDAB6843B9EB68F6
:1051DC0033B94FF6FF702E69FFF73CF886421FD0AB
:1051EC0005F1080301AE05F1180E1868596832462E
:1051FC0003C2083373451646F7D1062301A906A846
:10520C0007AE8DF81430FFF73FFA0FCE04340FC4FD
:10521C003368237057B16888FFF724F8388005E0AD
:10522C0005F114012046FFF764FAF3E70DB0F0BD69
:10523C002DE9F0418EB00EAB002506461746084608
:10524C0043F8345D2A462946FFF724F800281FDB73
:10525C00019BFBB15B69EBB102A8FFF707FA019B5D
:10526C002A46586902A9FFF79FFF02A8FFF71EFA0A
:10527C0080B1336803ADD3F838800B4B08930FCD56
:10528C0009AC0FC42B6823703A4608A93046C047B6
:10529C00044601E04FF0FF340198FEF7F3FF20467F
:1052AC000EB0BDE8F08100BFF05D0D002DE9F047B8
:1052BC00D0F81480B8F1000F8CB005460C46174698
:1052CC00994600DB11B94FF0FF3035E04FF01C0A66
:1052DC0005AE52460021304600F008FDCDF808A07E
:1052EC00B9F1000F14D04FF47A72B9FBF2F10391BB
:1052FC0002FB11914A4308230492009341F20602E7
:10530C0003AB40F6FF714046FEF7D4FF08B113E043
:10531C00082002AB01932146034600963A46686981
:10532C00FEF7D8FF041E06DB05F1340205F11C0163
:10533C003046FFF739FF20460CB0BDE8F08738B592
:10534C00054614462B7D062B084611D11C231370E1
:10535C000A235370FEF78EFF083424F8060C2B1D1D
:10536C00143553F8042B44F8042BAB42F9D138BD57
:10537C00042B0AD11023137002235370FEF77AFF0B
:10538C0060806868FEF766FF606038BD2DE9F04309
:10539C008BB003AC1C25994606460F46904600215F
:1053AC002A46204600F0A2FC2246BDF8481048468A
:1053BC00FFF7C5FF9DF80D3043B18DE83000002399
:1053CC00424639467069FEF78DFF01E04FF0FF3021
:1053DC000BB0BDE8F083F0B591B00C460646002149
:1053EC00154609A81C221F4600F080FC09AA0021C2
:1053FC002046FFF7A4FF9DF82530022B2ED1002369
:10540C0005930A9B0493DDB102A92846FEF7FAFE28
:10541C00B0B910A941F8340D0298FEF7FBFE60B943
:10542C00039B53B1DA6812685178022903D1526890
:10543C000AB1059201E01B68F3E70398FEF7F2FE50
:10544C00002F4FF00803009318BF032204AB08BFD2
:10545C00042200213046FEF72DFF1EE00A2B1AD144
:10546C0004AC14220021204600F040FC0BAB0FCB07
:10547C00002F84E80F004FF01403009318BF0C2288
:10548C00234608BF0D22292130460895FEF712FF4E
:10549C0000EAE07001E04FF0FF3011B0F0BD000009
:1054AC0038B54FF47A7383600B4B03F108026C33FD
:1054BC00002503614FF0FF330446456002604361F1
:1054CC001C30FFF7D3F84FF40073E5862587E563AE
:1054DC0023646564204638BDB05F0D0010B590F8AC
:1054EC004830044623B1C06B10B1012100F06FFAB3
:1054FC000023E36384F848302364E386238710BDDC
:10550C0070B5044616460D46FFF7E8FF0023E66328
:10551C0023643EB935B12846FEF7B9FD0123E0639B
:10552C0084F84830E36B03B12564206C003018BF5D
:10553C00012070BDF8B51746C26B05460C461AB96A
:10554C00016C09B1FFF7DCFF04340FCC05F1200628
:10555C000FC6236833700023AF86EB862B87286C2D
:10556C00F8BD70B5C26B04460E461AB9016C09B190
:10557C00FFF7C6FFE16B0022E286228749B1226C5D
:10558C003AB1236820461D6B3346A8470028C8BF94
:10559C002087236820461B69BDE87040184700002F
:1055AC0010B5074B03F108026C330446026003612B
:1055BC00FFF76BFD2046FFF791FF204610BD00BFA3
:1055CC00B05F0D0010B50446FFF7EAFF20464C21F2
:1055DC0000F0FDF9204610BD02464069002804DBAE
:1055EC00012392F84420FFF7F6BE4FF0FF307047CE
:1055FC0070474174704708B5007CFEF7BBFE20EA8B
:10560C00E07008BD08B5007CFEF794FE20EAE0705F
:10561C0008BD08B5007CFEF79DFE30EA200028BFCF
:10562C004FF0FF3008BD08B5007CFEF78BFE30EA6A
:10563C00200028BF4FF0FF3008BD007CFEF792BE63
:10564C0010B51421044600F0C2F9204610BD70B507
:10565C00457C04460E4625B9007CFEF78BFE0028DF
:10566C0005DD3146207CBDE87040FEF75BBE284668
:10567C0070BD000010B50446084611460022626059
:10568C004FF47A72A260054A22600122207462747F
:10569C001A46FEF73FFE204610BD00BF28600D00E5
:1056AC00F8B5194C25684DB98420FEF7EEFC06467A
:1056BC0018B18422294600F019FB2660134D2E6880
:1056CC004EB98420FEF7E1FC074618B1842231461E
:1056DC0000F00CFB2F600E4F396811F0010611D150
:1056EC003846FEF7DAFC68B122682B680948314667
:1056FC00FFF7C0FF3846FEF7D5FC074A07490548B7
:10570C0000F060F90348F8BD00E70320F8E6032039
:10571C00FCE60320E4E60320CCE40320FD550D0059
:10572C0041747047704708B50021007CFEF74AFEB3
:10573C0030EA200028BF4FF0FF3008BD08B501212A
:10574C00007CFEF73FFE30EA200028BF4FF0FF3010
:10575C0008BD08B5007CFEF72DFE20EAE07008BD00
:10576C0008B5007CFEF71EFE20EAE07008BD007C48
:10577C00FEF738BE10B51421044600F028F9204677
:10578C0010BD38B50446007C0D46FEF713FE00280C
:10579C0001DC607C28B12946207CFEF71BFE20EA48
:1057AC00E07038BD10B50446002363604FF47A7383
:1057BC00A360054B236001230846217463741146D2
:1057CC00FEF7E0FD204610BD58600D000022007C65
:1057DC00FEF7E0BD10B514220446002100F086FA55
:1057EC00204610BD30B50E4D87B001A8FFF7F2FF73
:1057FC00296811F0010410D12846FEF74EFC60B167
:10580C0001AA21460748FFF7CDFF2846FEF74AFCC0
:10581C00054A0649034800F0D5F8024807B030BDE8
:10582C0004E7032008E70320CCE4032031570D00E4
:10583C00002211464068FEF733BE00221146406834
:10584C00FEF74EBE002211464068FEF759BE0022FC
:10585C004068FEF74DBE002281F001014068FEF762
:10586C0037BE00231A4619464068FEF729BE0023AE
:10587C001A4619464068FEF71BBE002211464068C6
:10588C00FEF7FEBD002202214068FEF701BE002398
:10589C001A464068FEF7ECBD024B04225A60024ADD
:1058AC001A6070471CE7032088600D0008B50C4B8C
:1058BC0033B1FFF797FF03681B699847002809DC91
:1058CC00084B63B1FFF7ECFE03681B69984700288F
:1058DC0003DC08BDAFF30080F2E7AFF3008008BD36
:1058EC00000000000000000008B5FFF7DFFFFEF726
:1058FC0069FC014B186008BD28E7032007B500239D
:10590C0000931A466FF07701FEF796FD03B05DF831
:10591C0004FB000007B543880A2B08D0502B09D193
:10592C00094B1B683BB103B05DF804EB1847FFF75C
:10593C00E5FF06E0002300931A466FF07701FEF7AF
:10594C007BFD03B05DF804FB24E7032010B5FEF7E4
:10595C0029FC044600F0D2F9074B13B12046AFF3F3
:10596C00008000210448FEF77BFD00210348BDE8C0
:10597C001040FEF757BD00BF0000000021590D007C
:10598C0070B50C4C0C4E0D4D00212046FFF7BCFAA7
:10599C0020460B4C3246294600F014F801212046D3
:1059AC00FFF7B2FA324629462046BDE8704000F0B7
:1059BC0009B800BF2CE70320CCE40320054F0D00F1
:1059CC003CE703200B460146184600F067B9FEF78A
:1059DC0060BB0000024B1868BFF35F8F704700BFBD
:1059EC004CE7032010B5002814BF044601242046C0
:1059FC00FEF78EFD20B9FFF7EDFF08B18047F6E703
:105A0C0010BDFFF7EFBF08B5FEF79AFD244B1A68DF
:105A1C00D0075CBF01221A60224B1A68D1075CBF09
:105A2C0001221A60204B1A68D2075CBF01221A604F
:105A3C001E4B1A68D0075CBF01221A601C4B1A68F7
:105A4C00D1075CBF01221A601A4B1A68D2075CBFDF
:105A5C0001221A60184B1A68D0075CBF01221A6029
:105A6C00164B1A68D1075CBF01221A60144B1A68D6
:105A7C00D2075CBF01221A60124B1A68D0075CBFB8
:105A8C0001221A60104B1A68D1075CBF01221A6000
:105A9C000E4B1A68D2075CBF01221A60704700BF18
:105AAC007CE7032078E7032074E7032070E70320EA
:105ABC006CE7032068E7032064E7032060E703201A
:105ACC005CE7032058E7032054E7032050E703204A
:105ADC00184B1A68D1075CBF01221A60164B1A6862
:105AEC00D2075CBF01221A60144B1A68D0075CBF46
:105AFC0001221A60124B1A68D1075CBF01221A608E
:105B0C00104B1A68D2075CBF01221A600E4B1A6840
:105B1C00D0075CBF01221A600C4B1A68D1075CBF1E
:105B2C0001221A600A4B1A68D2075CBF01221A6064
:105B3C00704700BF9CE7032098E7032094E70320FD
:105B4C0090E703208CE7032088E7032084E70320F9
:105B5C0080E70320184B1A68D1075CBF01221A603A
:105B6C00164B1A68D2075CBF01221A60144B1A68D4
:105B7C00D0075CBF01221A60124B1A68D1075CBFB8
:105B8C0001221A60104B1A68D2075CBF01221A60FE
:105B9C000E4B1A68D0075CBF01221A600C4B1A68B6
:105BAC00D1075CBF01221A600A4B1A68D2075CBF8E
:105BBC0001221A60704700BFBCE70320B8E703203E
:105BCC00B4E70320B0E70320ACE70320A8E70320E9
:105BDC00A4E70320A0E70320244B1A68D0075CBF7E
:105BEC0001221A60224B1A68D1075CBF01221A608D
:105BFC00204B1A68D2075CBF01221A601E4B1A6830
:105C0C00D0075CBF01221A601C4B1A68D1075CBF1D
:105C1C0001221A601A4B1A68D2075CBF01221A6063
:105C2C00184B1A68D0075CBF01221A60164B1A6811
:105C3C00D1075CBF01221A60144B1A68D2075CBFF3
:105C4C0001221A60124B1A68D0075CBF01221A603D
:105C5C00104B1A68D1075CBF01221A600E4B1A68F0
:105C6C00D2075CBF01221A60704700BFECE703202B
:105C7C00E8E70320E4E70320E0E70320DCE7032068
:105C8C00D8E70320D4E70320D0E70320CCE7032098
:105C9C00C8E70320C4E70320C0E7032010B5054C78
:105CAC0013462CB10A4601460220AFF3008010BD0A
:105CBC00204610BD0000000010B50139024490428E
:105CCC0007D010F8013B11F8014FA342F7D0181B75
:105CDC0010BD002010BD10B5431E0A44914204D0E3
:105CEC0011F8014B03F8014FF8E710BD02440346CD
:105CFC00934202D003F8011BFAE7704738B5124BF8
:105D0C001C68A36B0546D3B91820FEF701FC43F2BF
:105D1C000E33A06303804AF6CD33438041F2342323
:105D2C0083804EF26D63C3804DF6EC6303810523D3
:105D3C0043810B23838101220023C0E90423A36B3D
:105D4C0000221D615A6138BDC8E40320034613F8D4
:105D5C00012B002AFBD1181A0138704710B50346E5
:105D6C0001448B4204D01A785C1C0AB12346F8E734
:105D7C00181A10BD1D400D0059400D0085400D0036
:105D8C0089400D000000000048656C6C6F20496E66
:105D9C007374616772616D21006967666F6C6C6FFB
:105DAC007765727300000000000000000000000026
:105DBC00E5450D00DB450D00D1450D00C7450D0037
:105DCC00BB450D00AF450D00A3450D009B450D00D7
:105DDC0091450D0087450D00214D0D000000000080
:105DEC000000000015460D0005460D0007460D008D
:105DFC00626175640053657269616C005365726908
:105E0C00616C31007479706500706172616D006352
:105E1C006D6400696400686E64007374726D006672
:105E2C00696C74006C766C0061646448616E646CBF
:105E3C0065720072656D6F766548616E646C657233
:105E4C0000656E756D48616E646C657273004A53C3
:105E5C004F4E53747265616D4C6F6748616E646C24
:105E6C0065720061707000253031307520005D2046
:105E7C00002C200028293A2000205B00636F646509
:105E8C00203D200025690064657461696C73203DB8
:105E9C0020000D0A0066006C6E00666E00636F6475
:105EAC00650064657461696C006E6F6E6500747278
:105EBC0061636500696E666F007761726E00657272
:105ECC00726F720070616E696300616C6C0000002F
:105EDC000000000000000000B9470D00AF470D00A6
:105EEC00A5470D009B470D008F470D0083470D0004
:105EFC0077470D006F470D0065470D005B470D00A0
:105F0C00214D0D00666630333A3A313A313030313A
:105F1C0000776972696E67007061727365207061D9
:105F2C00636B657420256400746831006D6573685B
:105F3C00707562000000000000000000B94C0D00FC
:105F4C00C34C0D00CD4C0D00D74C0D00E14C0D0099
:105F5C00ED4C0D00F94C0D00054D0D000D4D0D00D7
:105F6C00174D0D00214D0D00000000000000000039
:105F7C00054F0D00074F0D005A00252B3033643AA6
:105F8C00253032750025592D256D2D256454254855
:105F9C003A254D3A2553257A0061736374696D6512
:105FAC00000000000000000000000000AD550D00D6
:105FBC00D1550D00894F0D00B3500D00814F0D00D0
:105FCC009F4F0D00BD4F0D00D74F0D00FB4F0D0027
:105FDC0097500D0099530D0039510D00B9520D0019
:105FEC00694F0D0041550D003D520D0071510D00D2
:105FFC006F550D00DD500D00774F0D0019510D0040
:10600C007D4F0D00D94F0D00F0FFFFFF0000000089
:10601C00F34F0D000000000000000000FD550D00C6
:10602C004D560D005B560D00014E0D0011560D0026
:10603C0033560D001F560D0047560D00FF550D0031
:10604C0003560D00000000000000000031570D0049
:10605C0081570D008F570D00014E0D006D570D002F
:10606C0033570D0049570D007B570D005F570D003E
:10607C002D570D0000000000000000009B580D0083
:10608C0091580D0087580D003D580D007B580D00A0
:10609C006F580D0063580D005B580D0051580D00E2
:1060AC0047580D00214D0D000000000000000000BD
:1060BC0000000000000000000000000000000000D4
:1060CC0000000000000000000000000000000000C4
:1060DC0000000000000000000000000000000000B4
:1060EC0000000000000000000000000000000000A4
:1060FC000000000000000000000000000000000094
:10610C000000000000000000000000004300000040
:10611C001B410D0065450D00F1450D001D470D009F
:10612C00694C0D00ED4D0D00E94E0D003D4F0D007D
:10613C00554F0D00A5580D008D590D00195A0D0025
:10614C00DD5A0D00615B0D00E55B0D0000000000E9
:04615C00000000003F
:10616000A55F0D0000000000B8600D00D8600D00B4
:10617000F8600D00000000000000000000000000BA
:106180000000000018610D00000000000000000089
:1061900000000000000000000000000000000000FF
:1061A00000000000000000000000000000000000EF
:1061B00000000000000000000000000000000000DF
:0861C0000000000068E4032068
:1061C800FFFFFFFF00000102030405060708090A94
:1061D8000B0C0D0E0F101112131415161718191A8F
:0861E8001B1C1D1E1F202800D6
:0461F0007856341297
:04000003D000401CCD
:00000001FF
